:1008310057656C636F6D6520746F2075736521203A
:10084100002B574549207C505249207C204D4F4E6A
:100851002000302E3030307C20202E207C202020A3
:030861002E200046
:10086400041900000000041000000000041400003B
:100874000000011800010F00030C00000004080030
:05088400000000C100AE
:1003C20012090D7F801209257BFF7A087931120804
:1003D2008A7FD07E071208B0E4F518F50CF50DF50A
:1003E2000EC2007F801209257BFF7A08794212082B
:1003F2008A7FC01209257BFF7A08795312088A1274
:1004020008F030000302049B1206327FC012092555
:10041200E47BE87A03F9F8AF17AE16AD15AC141207
:1004220002FEEF2430FF12093A7F2E12093AE47BD2
:10043200E87A03F9F8AF17AE16AD15AC141202FE46
:10044200AC00AD01AE02AF03E47B64FAF9F812022C
:10045200FEEF2430FF12093AE47B64FAF9F8AF1791
:10046200AE16AD15AC141202FEAC00AD01AE02AF79
:1004720003E47B0AFAF9F81202FEEF2430FF1209B4
:100482003AE47B0AFAF9F8AF17AE16AD15AC1412BE
:1004920002FEEB2430FF12093A1207808F0FE50F9C
:1004A20064557003020404E50FB410031208F0E56A
:1004B2000F640F70030203DAE50F640C7033151832
:1004C200C3E518648094805003E4F518740C251871
:1004D200F8E4F6E51814600B14600C240270127F25
:1004E200C680067FC780027FC91209257F201209B4
:1004F2003AE50F640D60030205D8E50D75F00AA414
:10050200FDACF0E50C75F064A42DFFE5F03CFE7C3B
:1005120000EF250EFFEC3EFEE48F0B8E0AF509F587
:1005220008AF17AE16AD15AC14AB0BAA0AA909A8F1
:1005320008120273E47BE87A03F9F81202FE8F0BC9
:100542008E0A8D098C087FCB120925E47BE87A0399
:10055200F9F8AF0BAE0AAD09AC081202FEEF243077
:10056200FF12093AE47BE87A03F9F8AF0BAE0AAD61
:1005720009AC081202FEAC00AD01AE02AF03E47B8F
:1005820064FAF9F81202FEEF2430FF12093AE47B12
:1005920064FAF9F8AF0BAE0AAD09AC081202FEAC70
:1005A20000AD01AE02AF03E47B0AFAF9F81202FED3
:1005B200EF2430FF12093A7F2E12093AE47B0AFA3D
:1005C200F9F8AF0BAE0AAD09AC081202FEEB24300B
:1005D200FF12093AD200E50FC3940050030204044B
:1005E200E50FD394094003020404740C2518F8A6FD
:1005F2000FE5181460101460162402701F7FC612D3
:100602000925E50C80107FC7120925E50D80077FBB
:10061200C9120925E50E2430FF12093A0518C3E56F
:1006220018648094835003020404751803020404BE
:10078000E4FF7E55FDFC75B0F0E5B064F06007ADA8
:10079000B075B00FACB075B0F0E5B0B4F0FBED4C97
:1007A000FFBFEE027E01BFED027E04BFEB027E07BB
:1007B000BFE7027E0BBFD702E4FEBFB7027E0EBFCB
:1007C000DE027E02BFDD027E05BFDB027E08BFBE09
:1007D000027E03BFBD027E06BFBB027E09BF7E0252
:1007E0007E10BF7D027E0FBF7B027E0CBF77027E34
:0307F0000DAF0644
:0107F30022E3
:100632001207F48F1C8E1B8D1A8C19E47B64FAF955
:10064200F81202FE8F1C8E1B8D1A8C19AF13AE127C
:10065200AD11AC10AB1CAA1BA91AA819D312039E88
:100662004053851C17851B16851A15851914E51725
:100672009513F517E5169512F516E5159511F5156D
:10068200E5149510F514AF17AE16AD15FCE4120182
:100692009B7B3D7A0A798778401200FE7BCD7ACC2B
:1006A200794C783D12000A1201D9E48F178E16F5A3
:1006B20015F514D290E47F887E13FDFCAB17AA16C1
:1006C200A915A814D312039E5022E51324E2FFE5D4
:1006D2001234FFFEE51134FFFDE51034FFFCAB1CC4
:1006E200AA1BA91AA819C312039E5003C29022D2B0
:0206F200902254
:1008F0001207F48F1C8E1B8D1A8C19E47B64FAF995
:0D090000F81202FE8F138E128D118C102242
:1008B000E4FDFCC3ED9FEC9E5015E4FBFA0BBB007E
:0F08C000010AEB647B4A70F50DBD00010C80E46A
:0108CF002206
:1008D000E4FDFCC3ED9FEC9E5015E4FBFA0BBB005E
:0F08E000010AEB647B4A70F50DBD00010C80E44A
:0108EF0022E6
:10092500A907C2A57F017E001208D0D2A78980122F
:0509350008D0C2A7225A
:10093A00A907D2A57F017E001208D08980D2A7120A
:05094A0008D0C2A72245
:10088A008B1D8A1E891FAB1DAA1EA91F12025AFFA1
:10089A00D39400401012093A7401251FF51FE4355C
:0608AA001EF51E80E12294
:10090D00C2A7C2A67F381209257F0C1209257F06C2
:08091D001209257F01020925E2
:03094F0000002283
:1007F400D2A012094FC2A17F007E007D007C0020A0
:10080400A0FDE4FBD2A178011203AFC2A130A00D78
:10081400EF2401FFE43EFEE43DFDE43CFC0BBB1889
:0C082400E3D2A1ED6480FD12094FC2A1D7
:0108300022A5
:10000300020245E86480F8E933E83360110460F0E4
:10001300ED33EC337009E8FCE9FDEAFEEBFF220463
:1000230060DED3EB9FEA9EE99DE8C2E78CF0C2F75E
:1000330095F0400CE8CCF8E9CDF9EACEFAEBCFFB2A
:1000430012021085D0F05804700320D5B3E8047071
:10005300075002B2D502024F92D5EC0460F7E4CC0C
:10006300C0E0C398F8603B94186008400DD0E0FBF3
:10007300020227E4FBFAC9FC8028E830E406E4C95D
:10008300FBE4CAFCE830E305E4C9CACBFCE8540747
:100093006010F8C3E913F9EA13FAEB13FBEC13FC52
:1000A300D8F130F52FC3E49CFCEF9BFFEE9AFEEDF5
:1000B30099FDD0E0FBEF4E4D4C701222DB030202A0
:1000C3004CEC2CFCEF33FFEE33FEED33FDED30E76C
:1000D300EB020227EF2BFFEE3AFEED39FDD0E0FBFA
:1000E30050130BBB000302024FED13FDEE13FEEFA3
:0800F30013FFEC13FC020227CD
:1000FB0002024FEC5D046005E859047003020245EF
:10010B00120210580460F6EC4860F2EC7004FDFE2D
:10011B00FF22C860DB2481C85009C39860025006D7
:10012B0002024C9850CAF582E9294B4A7005AB8202
:10013B0002023B75F0007C1A7880C3EF9BEE9AEDC0
:10014B0099400DC3EF9BFFEE9AFEED99FDE842F04F
:10015B00DC23ACF0D0E0FFD0E0FED0E0FDAB8220A2
:10016B00E7101BEB60BAEC2CFCEF33FFEE33FEED2C
:10017B0033FD020227E803F830E705C0F075F00005
:10018B00EF2FFFEE33FEED33FD40B830E7C280AA10
:10019B0075F020800E75F010800575F0087D007EDF
:1001AB00007F003392D530D503120390EC3340100F
:1001BB00EF33FFEE33FEED33FDEC33FCD5F0ED22E8
:0E01CB00E5F0247EA2D513CC92E7CDCEFF2224
:1001D900EDD2E7CD33EC3392D524814006E4FFFE1E
:1001E900FDFC22FCE4CFCECDCC24E0501174FF807D
:1001F900EDC3CC13CCCD13CDCE13CECF13CF04701A
:07020900F030D5DE02039086
:10021000E9D2E7C933E833F892D5EDD2E7CD33EC34
:0702200033FC5002B2D522AD
:10022700EC30E7100FBF000C0EBE00080DBD000438
:100237000BEB6014A2D5EB13FCED92E7FD2274FFE4
:10024700FCFDFEFF22E480F8A2D574FF13FC7D803D
:03025700E480EF51
:030000000206F401
:0C06F400787FE4F6D8FD75812002073BFA
:10025A00BB010689828A83E0225002E722BBFE02A2
:09026A00E32289828A83E49322D5
:10027300E88FF0A4CC8BF0A42CFCE98EF0A42CFC2A
:100283008AF0EDA42CFCEA8EF0A4CDA8F08BF0A4A8
:100293002DCC3825F0FDE98FF0A42CCD35F0FCEB07
:1002A3008EF0A4FEA9F0EB8FF0A4CFC5F02ECD39CC
:0F02B300FEE43CFCEAA42DCE35F0FDE43CFC2239
:1002C20075F008758200EF2FFFEE33FECD33CDCCF3
:1002D20033CCC58233C5829BED9AEC99E582984076
:1002E2000CF582EE9BFEED9AFDEC99FC0FD5F0D653
:1002F200E4CEFBE4CDFAE4CCF9A88222B800C1B97D
:100302000059BA002DEC8BF084CFCECDFCE5F0CBBA
:10031200F97818EF2FFFEE33FEED33FDEC33FCEBF3
:1003220033FB10D703994004EB99FB0FD8E5E4F9AE
:10033200FA227818EF2FFFEE33FEED33FDEC33FC9B
:10034200C933C910D7059BE99A4007EC9BFCE99A8F
:10035200F90FD8E0E4C9FAE4CCFB2275F010EF2FD4
:10036200FFEE33FEED33FDCC33CCC833C810D707D4
:100372009BEC9AE899400AED9BFDEC9AFCE899F80F
:0E0382000FD5F0DAE4CDFBE4CCFAE4C8F922A2
:0E039000C3E49FFFE49EFEE49DFDE49CFC227E
:10039E00EB9FF5F0EA9E42F0E99D42F0E89C45F0B5
:0103AE00222C
:1003AF00E8600FEFC333FFEE33FEED33FDEC33FCAC
:0303BF00D8F12250
:100700000203C2E493A3F8E493A34003F68001F24A
:1007100008DFF48029E493A3F85407240CC8C333FA
:10072000C4540F4420C8834004F456800146F6DFC9
:10073000E4800B0102040810204080900864E47EED
:10074000019360BCA3FF543F30E509541FFEE493BE
:10075000A360010ECF54C025E060A840B8E493A385
:10076000FAE493A3F8E493A3C8C582C8CAC583CAB0
:10077000F0A3C8C582C8CAC583CADFE9DEE780BE68
:01088900006E
:00000001FF
